{
	"contracts/FundMe.sol": {
		"FundMe": {
			"abi": [
				{
					"inputs": [],
					"name": "fund",
					"outputs": [],
					"stateMutability": "payable",
					"type": "function"
				},
				{
					"inputs": [],
					"name": "minimumUsd",
					"outputs": [
						{
							"internalType": "uint256",
							"name": "",
							"type": "uint256"
						}
					],
					"stateMutability": "view",
					"type": "function"
				}
			],
			"devdoc": {
				"kind": "dev",
				"methods": {},
				"version": 1
			},
			"evm": {
				"assembly": "    /* \"contracts/FundMe.sol\":93:417  contract FundMe {... */\n  mstore(0x40, 0x80)\n    /* \"contracts/FundMe.sol\":183:185  50 */\n  0x32\n    /* \"contracts/FundMe.sol\":155:185  uint256 public minimumUsd = 50 */\n  0x00\n  sstore\n    /* \"contracts/FundMe.sol\":93:417  contract FundMe {... */\n  callvalue\n  dup1\n  iszero\n  tag_1\n  jumpi\n  0x00\n  dup1\n  revert\ntag_1:\n  pop\n  dataSize(sub_0)\n  dup1\n  dataOffset(sub_0)\n  0x00\n  codecopy\n  0x00\n  return\nstop\n\nsub_0: assembly {\n        /* \"contracts/FundMe.sol\":93:417  contract FundMe {... */\n      mstore(0x40, 0x80)\n      jumpi(tag_1, lt(calldatasize, 0x04))\n      shr(0xe0, calldataload(0x00))\n      dup1\n      0x098de820\n      eq\n      tag_2\n      jumpi\n      dup1\n      0xb60d4288\n      eq\n      tag_3\n      jumpi\n    tag_1:\n      0x00\n      dup1\n      revert\n        /* \"contracts/FundMe.sol\":155:185  uint256 public minimumUsd = 50 */\n    tag_2:\n      callvalue\n      dup1\n      iszero\n      tag_4\n      jumpi\n      0x00\n      dup1\n      revert\n    tag_4:\n      pop\n      tag_5\n      tag_6\n      jump\t// in\n    tag_5:\n      mload(0x40)\n      tag_7\n      swap2\n      swap1\n      tag_8\n      jump\t// in\n    tag_7:\n      mload(0x40)\n      dup1\n      swap2\n      sub\n      swap1\n      return\n        /* \"contracts/FundMe.sol\":194:383  function fund() public payable {... */\n    tag_3:\n      tag_9\n      tag_10\n      jump\t// in\n    tag_9:\n      stop\n        /* \"contracts/FundMe.sol\":155:185  uint256 public minimumUsd = 50 */\n    tag_6:\n      sload(0x00)\n      dup2\n      jump\t// out\n        /* \"contracts/FundMe.sol\":194:383  function fund() public payable {... */\n    tag_10:\n        /* \"contracts/FundMe.sol\":236:253  uint256 usdAmount */\n      0x00\n        /* \"contracts/FundMe.sol\":256:285  msg.value.getConversionRate() */\n      tag_12\n        /* \"contracts/FundMe.sol\":256:265  msg.value */\n      callvalue\n        /* \"contracts/FundMe.sol\":256:283  msg.value.getConversionRate */\n      tag_13\n        /* \"contracts/FundMe.sol\":256:285  msg.value.getConversionRate() */\n      jump\t// in\n    tag_12:\n        /* \"contracts/FundMe.sol\":236:285  uint256 usdAmount = msg.value.getConversionRate() */\n      swap1\n      pop\n        /* \"contracts/FundMe.sol\":317:327  minimumUsd */\n      sload(0x00)\n        /* \"contracts/FundMe.sol\":304:313  usdAmount */\n      dup2\n        /* \"contracts/FundMe.sol\":304:327  usdAmount >= minimumUsd */\n      lt\n      iszero\n        /* \"contracts/FundMe.sol\":296:375  require(usdAmount >= minimumUsd, \"You need to send atleast $50 worth of ether\") */\n      tag_14\n      jumpi\n      mload(0x40)\n      0x08c379a000000000000000000000000000000000000000000000000000000000\n      dup2\n      mstore\n      0x04\n      add\n      tag_15\n      swap1\n      tag_16\n      jump\t// in\n    tag_15:\n      mload(0x40)\n      dup1\n      swap2\n      sub\n      swap1\n      revert\n    tag_14:\n        /* \"contracts/FundMe.sol\":225:383  {... */\n      pop\n        /* \"contracts/FundMe.sol\":194:383  function fund() public payable {... */\n      jump\t// out\n        /* \"contracts/PriceConverter.sol\":440:652  function getConversionRate(uint256 ethAmount) internal view returns(uint256) {... */\n    tag_13:\n        /* \"contracts/PriceConverter.sol\":508:515  uint256 */\n      0x00\n        /* \"contracts/PriceConverter.sol\":528:544  uint256 ethPrice */\n      dup1\n        /* \"contracts/PriceConverter.sol\":547:557  getPrice() */\n      tag_18\n        /* \"contracts/PriceConverter.sol\":547:555  getPrice */\n      tag_19\n        /* \"contracts/PriceConverter.sol\":547:557  getPrice() */\n      jump\t// in\n    tag_18:\n        /* \"contracts/PriceConverter.sol\":528:557  uint256 ethPrice = getPrice() */\n      swap1\n      pop\n        /* \"contracts/PriceConverter.sol\":568:585  uint256 usdAmount */\n      0x00\n        /* \"contracts/PriceConverter.sol\":613:617  1e18 */\n      0x0de0b6b3a7640000\n        /* \"contracts/PriceConverter.sol\":600:609  ethAmount */\n      dup5\n        /* \"contracts/PriceConverter.sol\":589:597  ethPrice */\n      dup4\n        /* \"contracts/PriceConverter.sol\":589:609  ethPrice * ethAmount */\n      tag_20\n      swap2\n      swap1\n      tag_21\n      jump\t// in\n    tag_20:\n        /* \"contracts/PriceConverter.sol\":588:617  (ethPrice * ethAmount) / 1e18 */\n      tag_22\n      swap2\n      swap1\n      tag_23\n      jump\t// in\n    tag_22:\n        /* \"contracts/PriceConverter.sol\":568:617  uint256 usdAmount = (ethPrice * ethAmount) / 1e18 */\n      swap1\n      pop\n        /* \"contracts/PriceConverter.sol\":635:644  usdAmount */\n      dup1\n        /* \"contracts/PriceConverter.sol\":628:644  return usdAmount */\n      swap3\n      pop\n      pop\n      pop\n        /* \"contracts/PriceConverter.sol\":440:652  function getConversionRate(uint256 ethAmount) internal view returns(uint256) {... */\n      swap2\n      swap1\n      pop\n      jump\t// out\n        /* \"contracts/PriceConverter.sol\":167:434  function getPrice() internal view returns(uint256) {... */\n    tag_19:\n        /* \"contracts/PriceConverter.sol\":209:216  uint256 */\n      0x00\n        /* \"contracts/PriceConverter.sol\":229:260  AggregatorV3Interface priceFeed */\n      dup1\n        /* \"contracts/PriceConverter.sol\":285:327  0xD4a33860578De61DBAbDc8BFdb98FD742fA7028e */\n      0xd4a33860578de61dbabdc8bfdb98fd742fa7028e\n        /* \"contracts/PriceConverter.sol\":229:328  AggregatorV3Interface priceFeed = AggregatorV3Interface(0xD4a33860578De61DBAbDc8BFdb98FD742fA7028e) */\n      swap1\n      pop\n        /* \"contracts/PriceConverter.sol\":341:353  int256 price */\n      0x00\n        /* \"contracts/PriceConverter.sol\":360:369  priceFeed */\n      dup2\n        /* \"contracts/PriceConverter.sol\":360:385  priceFeed.latestRoundData */\n      0xffffffffffffffffffffffffffffffffffffffff\n      and\n      0xfeaf968c\n        /* \"contracts/PriceConverter.sol\":360:387  priceFeed.latestRoundData() */\n      mload(0x40)\n      dup2\n      0xffffffff\n      and\n      0xe0\n      shl\n      dup2\n      mstore\n      0x04\n      add\n      0xa0\n      mload(0x40)\n      dup1\n      dup4\n      sub\n      dup2\n      dup7\n      gas\n      staticcall\n      iszero\n      dup1\n      iszero\n      tag_26\n      jumpi\n      returndatasize\n      0x00\n      dup1\n      returndatacopy\n      revert(0x00, returndatasize)\n    tag_26:\n      pop\n      pop\n      pop\n      pop\n      mload(0x40)\n      returndatasize\n      not(0x1f)\n      0x1f\n      dup3\n      add\n      and\n      dup3\n      add\n      dup1\n      0x40\n      mstore\n      pop\n      dup2\n      add\n      swap1\n      tag_27\n      swap2\n      swap1\n      tag_28\n      jump\t// in\n    tag_27:\n        /* \"contracts/PriceConverter.sol\":339:387  (,int256 price,,,) = priceFeed.latestRoundData() */\n      pop\n      pop\n      pop\n      swap2\n      pop\n      pop\n        /* \"contracts/PriceConverter.sol\":421:425  1e10 */\n      0x02540be400\n        /* \"contracts/PriceConverter.sol\":413:418  price */\n      dup2\n        /* \"contracts/PriceConverter.sol\":413:425  price * 1e10 */\n      tag_29\n      swap2\n      swap1\n      tag_30\n      jump\t// in\n    tag_29:\n        /* \"contracts/PriceConverter.sol\":398:426  return uint256(price * 1e10) */\n      swap3\n      pop\n      pop\n      pop\n        /* \"contracts/PriceConverter.sol\":167:434  function getPrice() internal view returns(uint256) {... */\n      swap1\n      jump\t// out\n        /* \"#utility.yul\":7:84   */\n    tag_31:\n        /* \"#utility.yul\":44:51   */\n      0x00\n        /* \"#utility.yul\":73:78   */\n      dup2\n        /* \"#utility.yul\":62:78   */\n      swap1\n      pop\n        /* \"#utility.yul\":7:84   */\n      swap2\n      swap1\n      pop\n      jump\t// out\n        /* \"#utility.yul\":90:208   */\n    tag_32:\n        /* \"#utility.yul\":177:201   */\n      tag_52\n        /* \"#utility.yul\":195:200   */\n      dup2\n        /* \"#utility.yul\":177:201   */\n      tag_31\n      jump\t// in\n    tag_52:\n        /* \"#utility.yul\":172:175   */\n      dup3\n        /* \"#utility.yul\":165:202   */\n      mstore\n        /* \"#utility.yul\":90:208   */\n      pop\n      pop\n      jump\t// out\n        /* \"#utility.yul\":214:436   */\n    tag_8:\n        /* \"#utility.yul\":307:311   */\n      0x00\n        /* \"#utility.yul\":345:347   */\n      0x20\n        /* \"#utility.yul\":334:343   */\n      dup3\n        /* \"#utility.yul\":330:348   */\n      add\n        /* \"#utility.yul\":322:348   */\n      swap1\n      pop\n        /* \"#utility.yul\":358:429   */\n      tag_54\n        /* \"#utility.yul\":426:427   */\n      0x00\n        /* \"#utility.yul\":415:424   */\n      dup4\n        /* \"#utility.yul\":411:428   */\n      add\n        /* \"#utility.yul\":402:408   */\n      dup5\n        /* \"#utility.yul\":358:429   */\n      tag_32\n      jump\t// in\n    tag_54:\n        /* \"#utility.yul\":214:436   */\n      swap3\n      swap2\n      pop\n      pop\n      jump\t// out\n        /* \"#utility.yul\":442:611   */\n    tag_33:\n        /* \"#utility.yul\":526:537   */\n      0x00\n        /* \"#utility.yul\":560:566   */\n      dup3\n        /* \"#utility.yul\":555:558   */\n      dup3\n        /* \"#utility.yul\":548:567   */\n      mstore\n        /* \"#utility.yul\":600:604   */\n      0x20\n        /* \"#utility.yul\":595:598   */\n      dup3\n        /* \"#utility.yul\":591:605   */\n      add\n        /* \"#utility.yul\":576:605   */\n      swap1\n      pop\n        /* \"#utility.yul\":442:611   */\n      swap3\n      swap2\n      pop\n      pop\n      jump\t// out\n        /* \"#utility.yul\":617:847   */\n    tag_34:\n        /* \"#utility.yul\":757:791   */\n      0x596f75206e65656420746f2073656e642061746c656173742024353020776f72\n        /* \"#utility.yul\":753:754   */\n      0x00\n        /* \"#utility.yul\":745:751   */\n      dup3\n        /* \"#utility.yul\":741:755   */\n      add\n        /* \"#utility.yul\":734:792   */\n      mstore\n        /* \"#utility.yul\":826:839   */\n      0x7468206f66206574686572000000000000000000000000000000000000000000\n        /* \"#utility.yul\":821:823   */\n      0x20\n        /* \"#utility.yul\":813:819   */\n      dup3\n        /* \"#utility.yul\":809:824   */\n      add\n        /* \"#utility.yul\":802:840   */\n      mstore\n        /* \"#utility.yul\":617:847   */\n      pop\n      jump\t// out\n        /* \"#utility.yul\":853:1219   */\n    tag_35:\n        /* \"#utility.yul\":995:998   */\n      0x00\n        /* \"#utility.yul\":1016:1083   */\n      tag_58\n        /* \"#utility.yul\":1080:1082   */\n      0x2b\n        /* \"#utility.yul\":1075:1078   */\n      dup4\n        /* \"#utility.yul\":1016:1083   */\n      tag_33\n      jump\t// in\n    tag_58:\n        /* \"#utility.yul\":1009:1083   */\n      swap2\n      pop\n        /* \"#utility.yul\":1092:1185   */\n      tag_59\n        /* \"#utility.yul\":1181:1184   */\n      dup3\n        /* \"#utility.yul\":1092:1185   */\n      tag_34\n      jump\t// in\n    tag_59:\n        /* \"#utility.yul\":1210:1212   */\n      0x40\n        /* \"#utility.yul\":1205:1208   */\n      dup3\n        /* \"#utility.yul\":1201:1213   */\n      add\n        /* \"#utility.yul\":1194:1213   */\n      swap1\n      pop\n        /* \"#utility.yul\":853:1219   */\n      swap2\n      swap1\n      pop\n      jump\t// out\n        /* \"#utility.yul\":1225:1644   */\n    tag_16:\n        /* \"#utility.yul\":1391:1395   */\n      0x00\n        /* \"#utility.yul\":1429:1431   */\n      0x20\n        /* \"#utility.yul\":1418:1427   */\n      dup3\n        /* \"#utility.yul\":1414:1432   */\n      add\n        /* \"#utility.yul\":1406:1432   */\n      swap1\n      pop\n        /* \"#utility.yul\":1478:1487   */\n      dup2\n        /* \"#utility.yul\":1472:1476   */\n      dup2\n        /* \"#utility.yul\":1468:1488   */\n      sub\n        /* \"#utility.yul\":1464:1465   */\n      0x00\n        /* \"#utility.yul\":1453:1462   */\n      dup4\n        /* \"#utility.yul\":1449:1466   */\n      add\n        /* \"#utility.yul\":1442:1489   */\n      mstore\n        /* \"#utility.yul\":1506:1637   */\n      tag_61\n        /* \"#utility.yul\":1632:1636   */\n      dup2\n        /* \"#utility.yul\":1506:1637   */\n      tag_35\n      jump\t// in\n    tag_61:\n        /* \"#utility.yul\":1498:1637   */\n      swap1\n      pop\n        /* \"#utility.yul\":1225:1644   */\n      swap2\n      swap1\n      pop\n      jump\t// out\n        /* \"#utility.yul\":1650:1830   */\n    tag_36:\n        /* \"#utility.yul\":1698:1775   */\n      0x4e487b7100000000000000000000000000000000000000000000000000000000\n        /* \"#utility.yul\":1695:1696   */\n      0x00\n        /* \"#utility.yul\":1688:1776   */\n      mstore\n        /* \"#utility.yul\":1795:1799   */\n      0x11\n        /* \"#utility.yul\":1792:1793   */\n      0x04\n        /* \"#utility.yul\":1785:1800   */\n      mstore\n        /* \"#utility.yul\":1819:1823   */\n      0x24\n        /* \"#utility.yul\":1816:1817   */\n      0x00\n        /* \"#utility.yul\":1809:1824   */\n      revert\n        /* \"#utility.yul\":1836:2246   */\n    tag_21:\n        /* \"#utility.yul\":1876:1883   */\n      0x00\n        /* \"#utility.yul\":1899:1919   */\n      tag_64\n        /* \"#utility.yul\":1917:1918   */\n      dup3\n        /* \"#utility.yul\":1899:1919   */\n      tag_31\n      jump\t// in\n    tag_64:\n        /* \"#utility.yul\":1894:1919   */\n      swap2\n      pop\n        /* \"#utility.yul\":1933:1953   */\n      tag_65\n        /* \"#utility.yul\":1951:1952   */\n      dup4\n        /* \"#utility.yul\":1933:1953   */\n      tag_31\n      jump\t// in\n    tag_65:\n        /* \"#utility.yul\":1928:1953   */\n      swap3\n      pop\n        /* \"#utility.yul\":1988:1989   */\n      dup3\n        /* \"#utility.yul\":1985:1986   */\n      dup3\n        /* \"#utility.yul\":1981:1990   */\n      mul\n        /* \"#utility.yul\":2010:2040   */\n      tag_66\n        /* \"#utility.yul\":2028:2039   */\n      dup2\n        /* \"#utility.yul\":2010:2040   */\n      tag_31\n      jump\t// in\n    tag_66:\n        /* \"#utility.yul\":1999:2040   */\n      swap2\n      pop\n        /* \"#utility.yul\":2189:2190   */\n      dup3\n        /* \"#utility.yul\":2180:2187   */\n      dup3\n        /* \"#utility.yul\":2176:2191   */\n      div\n        /* \"#utility.yul\":2173:2174   */\n      dup5\n        /* \"#utility.yul\":2170:2192   */\n      eq\n        /* \"#utility.yul\":2150:2151   */\n      dup4\n        /* \"#utility.yul\":2143:2152   */\n      iszero\n        /* \"#utility.yul\":2123:2206   */\n      or\n        /* \"#utility.yul\":2100:2239   */\n      tag_67\n      jumpi\n        /* \"#utility.yul\":2219:2237   */\n      tag_68\n      tag_36\n      jump\t// in\n    tag_68:\n        /* \"#utility.yul\":2100:2239   */\n    tag_67:\n        /* \"#utility.yul\":1884:2246   */\n      pop\n        /* \"#utility.yul\":1836:2246   */\n      swap3\n      swap2\n      pop\n      pop\n      jump\t// out\n        /* \"#utility.yul\":2252:2432   */\n    tag_37:\n        /* \"#utility.yul\":2300:2377   */\n      0x4e487b7100000000000000000000000000000000000000000000000000000000\n        /* \"#utility.yul\":2297:2298   */\n      0x00\n        /* \"#utility.yul\":2290:2378   */\n      mstore\n        /* \"#utility.yul\":2397:2401   */\n      0x12\n        /* \"#utility.yul\":2394:2395   */\n      0x04\n        /* \"#utility.yul\":2387:2402   */\n      mstore\n        /* \"#utility.yul\":2421:2425   */\n      0x24\n        /* \"#utility.yul\":2418:2419   */\n      0x00\n        /* \"#utility.yul\":2411:2426   */\n      revert\n        /* \"#utility.yul\":2438:2623   */\n    tag_23:\n        /* \"#utility.yul\":2478:2479   */\n      0x00\n        /* \"#utility.yul\":2495:2515   */\n      tag_71\n        /* \"#utility.yul\":2513:2514   */\n      dup3\n        /* \"#utility.yul\":2495:2515   */\n      tag_31\n      jump\t// in\n    tag_71:\n        /* \"#utility.yul\":2490:2515   */\n      swap2\n      pop\n        /* \"#utility.yul\":2529:2549   */\n      tag_72\n        /* \"#utility.yul\":2547:2548   */\n      dup4\n        /* \"#utility.yul\":2529:2549   */\n      tag_31\n      jump\t// in\n    tag_72:\n        /* \"#utility.yul\":2524:2549   */\n      swap3\n      pop\n        /* \"#utility.yul\":2568:2569   */\n      dup3\n        /* \"#utility.yul\":2558:2593   */\n      tag_73\n      jumpi\n        /* \"#utility.yul\":2573:2591   */\n      tag_74\n      tag_37\n      jump\t// in\n    tag_74:\n        /* \"#utility.yul\":2558:2593   */\n    tag_73:\n        /* \"#utility.yul\":2615:2616   */\n      dup3\n        /* \"#utility.yul\":2612:2613   */\n      dup3\n        /* \"#utility.yul\":2608:2617   */\n      div\n        /* \"#utility.yul\":2603:2617   */\n      swap1\n      pop\n        /* \"#utility.yul\":2438:2623   */\n      swap3\n      swap2\n      pop\n      pop\n      jump\t// out\n        /* \"#utility.yul\":2710:2827   */\n    tag_39:\n        /* \"#utility.yul\":2819:2820   */\n      0x00\n        /* \"#utility.yul\":2816:2817   */\n      dup1\n        /* \"#utility.yul\":2809:2821   */\n      revert\n        /* \"#utility.yul\":2956:3061   */\n    tag_41:\n        /* \"#utility.yul\":2992:2999   */\n      0x00\n        /* \"#utility.yul\":3032:3054   */\n      0xffffffffffffffffffff\n        /* \"#utility.yul\":3025:3030   */\n      dup3\n        /* \"#utility.yul\":3021:3055   */\n      and\n        /* \"#utility.yul\":3010:3055   */\n      swap1\n      pop\n        /* \"#utility.yul\":2956:3061   */\n      swap2\n      swap1\n      pop\n      jump\t// out\n        /* \"#utility.yul\":3067:3187   */\n    tag_42:\n        /* \"#utility.yul\":3139:3162   */\n      tag_80\n        /* \"#utility.yul\":3156:3161   */\n      dup2\n        /* \"#utility.yul\":3139:3162   */\n      tag_41\n      jump\t// in\n    tag_80:\n        /* \"#utility.yul\":3132:3137   */\n      dup2\n        /* \"#utility.yul\":3129:3163   */\n      eq\n        /* \"#utility.yul\":3119:3181   */\n      tag_81\n      jumpi\n        /* \"#utility.yul\":3177:3178   */\n      0x00\n        /* \"#utility.yul\":3174:3175   */\n      dup1\n        /* \"#utility.yul\":3167:3179   */\n      revert\n        /* \"#utility.yul\":3119:3181   */\n    tag_81:\n        /* \"#utility.yul\":3067:3187   */\n      pop\n      jump\t// out\n        /* \"#utility.yul\":3193:3334   */\n    tag_43:\n        /* \"#utility.yul\":3249:3254   */\n      0x00\n        /* \"#utility.yul\":3280:3286   */\n      dup2\n        /* \"#utility.yul\":3274:3287   */\n      mload\n        /* \"#utility.yul\":3265:3287   */\n      swap1\n      pop\n        /* \"#utility.yul\":3296:3328   */\n      tag_83\n        /* \"#utility.yul\":3322:3327   */\n      dup2\n        /* \"#utility.yul\":3296:3328   */\n      tag_42\n      jump\t// in\n    tag_83:\n        /* \"#utility.yul\":3193:3334   */\n      swap3\n      swap2\n      pop\n      pop\n      jump\t// out\n        /* \"#utility.yul\":3340:3416   */\n    tag_44:\n        /* \"#utility.yul\":3376:3383   */\n      0x00\n        /* \"#utility.yul\":3405:3410   */\n      dup2\n        /* \"#utility.yul\":3394:3410   */\n      swap1\n      pop\n        /* \"#utility.yul\":3340:3416   */\n      swap2\n      swap1\n      pop\n      jump\t// out\n        /* \"#utility.yul\":3422:3542   */\n    tag_45:\n        /* \"#utility.yul\":3494:3517   */\n      tag_86\n        /* \"#utility.yul\":3511:3516   */\n      dup2\n        /* \"#utility.yul\":3494:3517   */\n      tag_44\n      jump\t// in\n    tag_86:\n        /* \"#utility.yul\":3487:3492   */\n      dup2\n        /* \"#utility.yul\":3484:3518   */\n      eq\n        /* \"#utility.yul\":3474:3536   */\n      tag_87\n      jumpi\n        /* \"#utility.yul\":3532:3533   */\n      0x00\n        /* \"#utility.yul\":3529:3530   */\n      dup1\n        /* \"#utility.yul\":3522:3534   */\n      revert\n        /* \"#utility.yul\":3474:3536   */\n    tag_87:\n        /* \"#utility.yul\":3422:3542   */\n      pop\n      jump\t// out\n        /* \"#utility.yul\":3548:3689   */\n    tag_46:\n        /* \"#utility.yul\":3604:3609   */\n      0x00\n        /* \"#utility.yul\":3635:3641   */\n      dup2\n        /* \"#utility.yul\":3629:3642   */\n      mload\n        /* \"#utility.yul\":3620:3642   */\n      swap1\n      pop\n        /* \"#utility.yul\":3651:3683   */\n      tag_89\n        /* \"#utility.yul\":3677:3682   */\n      dup2\n        /* \"#utility.yul\":3651:3683   */\n      tag_45\n      jump\t// in\n    tag_89:\n        /* \"#utility.yul\":3548:3689   */\n      swap3\n      swap2\n      pop\n      pop\n      jump\t// out\n        /* \"#utility.yul\":3695:3817   */\n    tag_47:\n        /* \"#utility.yul\":3768:3792   */\n      tag_91\n        /* \"#utility.yul\":3786:3791   */\n      dup2\n        /* \"#utility.yul\":3768:3792   */\n      tag_31\n      jump\t// in\n    tag_91:\n        /* \"#utility.yul\":3761:3766   */\n      dup2\n        /* \"#utility.yul\":3758:3793   */\n      eq\n        /* \"#utility.yul\":3748:3811   */\n      tag_92\n      jumpi\n        /* \"#utility.yul\":3807:3808   */\n      0x00\n        /* \"#utility.yul\":3804:3805   */\n      dup1\n        /* \"#utility.yul\":3797:3809   */\n      revert\n        /* \"#utility.yul\":3748:3811   */\n    tag_92:\n        /* \"#utility.yul\":3695:3817   */\n      pop\n      jump\t// out\n        /* \"#utility.yul\":3823:3966   */\n    tag_48:\n        /* \"#utility.yul\":3880:3885   */\n      0x00\n        /* \"#utility.yul\":3911:3917   */\n      dup2\n        /* \"#utility.yul\":3905:3918   */\n      mload\n        /* \"#utility.yul\":3896:3918   */\n      swap1\n      pop\n        /* \"#utility.yul\":3927:3960   */\n      tag_94\n        /* \"#utility.yul\":3954:3959   */\n      dup2\n        /* \"#utility.yul\":3927:3960   */\n      tag_47\n      jump\t// in\n    tag_94:\n        /* \"#utility.yul\":3823:3966   */\n      swap3\n      swap2\n      pop\n      pop\n      jump\t// out\n        /* \"#utility.yul\":3972:4943   */\n    tag_28:\n        /* \"#utility.yul\":4075:4081   */\n      0x00\n        /* \"#utility.yul\":4083:4089   */\n      dup1\n        /* \"#utility.yul\":4091:4097   */\n      0x00\n        /* \"#utility.yul\":4099:4105   */\n      dup1\n        /* \"#utility.yul\":4107:4113   */\n      0x00\n        /* \"#utility.yul\":4156:4159   */\n      0xa0\n        /* \"#utility.yul\":4144:4153   */\n      dup7\n        /* \"#utility.yul\":4135:4142   */\n      dup9\n        /* \"#utility.yul\":4131:4154   */\n      sub\n        /* \"#utility.yul\":4127:4160   */\n      slt\n        /* \"#utility.yul\":4124:4244   */\n      iszero\n      tag_96\n      jumpi\n        /* \"#utility.yul\":4163:4242   */\n      tag_97\n      tag_39\n      jump\t// in\n    tag_97:\n        /* \"#utility.yul\":4124:4244   */\n    tag_96:\n        /* \"#utility.yul\":4283:4284   */\n      0x00\n        /* \"#utility.yul\":4308:4371   */\n      tag_98\n        /* \"#utility.yul\":4363:4370   */\n      dup9\n        /* \"#utility.yul\":4354:4360   */\n      dup3\n        /* \"#utility.yul\":4343:4352   */\n      dup10\n        /* \"#utility.yul\":4339:4361   */\n      add\n        /* \"#utility.yul\":4308:4371   */\n      tag_43\n      jump\t// in\n    tag_98:\n        /* \"#utility.yul\":4298:4371   */\n      swap6\n      pop\n        /* \"#utility.yul\":4254:4381   */\n      pop\n        /* \"#utility.yul\":4420:4422   */\n      0x20\n        /* \"#utility.yul\":4446:4509   */\n      tag_99\n        /* \"#utility.yul\":4501:4508   */\n      dup9\n        /* \"#utility.yul\":4492:4498   */\n      dup3\n        /* \"#utility.yul\":4481:4490   */\n      dup10\n        /* \"#utility.yul\":4477:4499   */\n      add\n        /* \"#utility.yul\":4446:4509   */\n      tag_46\n      jump\t// in\n    tag_99:\n        /* \"#utility.yul\":4436:4509   */\n      swap5\n      pop\n        /* \"#utility.yul\":4391:4519   */\n      pop\n        /* \"#utility.yul\":4558:4560   */\n      0x40\n        /* \"#utility.yul\":4584:4648   */\n      tag_100\n        /* \"#utility.yul\":4640:4647   */\n      dup9\n        /* \"#utility.yul\":4631:4637   */\n      dup3\n        /* \"#utility.yul\":4620:4629   */\n      dup10\n        /* \"#utility.yul\":4616:4638   */\n      add\n        /* \"#utility.yul\":4584:4648   */\n      tag_48\n      jump\t// in\n    tag_100:\n        /* \"#utility.yul\":4574:4648   */\n      swap4\n      pop\n        /* \"#utility.yul\":4529:4658   */\n      pop\n        /* \"#utility.yul\":4697:4699   */\n      0x60\n        /* \"#utility.yul\":4723:4787   */\n      tag_101\n        /* \"#utility.yul\":4779:4786   */\n      dup9\n        /* \"#utility.yul\":4770:4776   */\n      dup3\n        /* \"#utility.yul\":4759:4768   */\n      dup10\n        /* \"#utility.yul\":4755:4777   */\n      add\n        /* \"#utility.yul\":4723:4787   */\n      tag_48\n      jump\t// in\n    tag_101:\n        /* \"#utility.yul\":4713:4787   */\n      swap3\n      pop\n        /* \"#utility.yul\":4668:4797   */\n      pop\n        /* \"#utility.yul\":4836:4839   */\n      0x80\n        /* \"#utility.yul\":4863:4926   */\n      tag_102\n        /* \"#utility.yul\":4918:4925   */\n      dup9\n        /* \"#utility.yul\":4909:4915   */\n      dup3\n        /* \"#utility.yul\":4898:4907   */\n      dup10\n        /* \"#utility.yul\":4894:4916   */\n      add\n        /* \"#utility.yul\":4863:4926   */\n      tag_43\n      jump\t// in\n    tag_102:\n        /* \"#utility.yul\":4853:4926   */\n      swap2\n      pop\n        /* \"#utility.yul\":4807:4936   */\n      pop\n        /* \"#utility.yul\":3972:4943   */\n      swap3\n      swap6\n      pop\n      swap3\n      swap6\n      swap1\n      swap4\n      pop\n      jump\t// out\n        /* \"#utility.yul\":4949:5505   */\n    tag_30:\n        /* \"#utility.yul\":4988:4995   */\n      0x00\n        /* \"#utility.yul\":5011:5030   */\n      tag_104\n        /* \"#utility.yul\":5028:5029   */\n      dup3\n        /* \"#utility.yul\":5011:5030   */\n      tag_44\n      jump\t// in\n    tag_104:\n        /* \"#utility.yul\":5006:5030   */\n      swap2\n      pop\n        /* \"#utility.yul\":5044:5063   */\n      tag_105\n        /* \"#utility.yul\":5061:5062   */\n      dup4\n        /* \"#utility.yul\":5044:5063   */\n      tag_44\n      jump\t// in\n    tag_105:\n        /* \"#utility.yul\":5039:5063   */\n      swap3\n      pop\n        /* \"#utility.yul\":5098:5099   */\n      dup3\n        /* \"#utility.yul\":5095:5096   */\n      dup3\n        /* \"#utility.yul\":5091:5100   */\n      mul\n        /* \"#utility.yul\":5120:5149   */\n      tag_106\n        /* \"#utility.yul\":5137:5148   */\n      dup2\n        /* \"#utility.yul\":5120:5149   */\n      tag_44\n      jump\t// in\n    tag_106:\n        /* \"#utility.yul\":5109:5149   */\n      swap2\n      pop\n        /* \"#utility.yul\":5207:5273   */\n      0x8000000000000000000000000000000000000000000000000000000000000000\n        /* \"#utility.yul\":5204:5205   */\n      dup5\n        /* \"#utility.yul\":5201:5274   */\n      eq\n        /* \"#utility.yul\":5197:5198   */\n      0x00\n        /* \"#utility.yul\":5194:5195   */\n      dup5\n        /* \"#utility.yul\":5190:5199   */\n      slt\n        /* \"#utility.yul\":5186:5275   */\n      and\n        /* \"#utility.yul\":5183:5298   */\n      iszero\n      tag_107\n      jumpi\n        /* \"#utility.yul\":5278:5296   */\n      tag_108\n      tag_36\n      jump\t// in\n    tag_108:\n        /* \"#utility.yul\":5183:5298   */\n    tag_107:\n        /* \"#utility.yul\":5448:5449   */\n      dup3\n        /* \"#utility.yul\":5439:5446   */\n      dup3\n        /* \"#utility.yul\":5434:5450   */\n      sdiv\n        /* \"#utility.yul\":5431:5432   */\n      dup5\n        /* \"#utility.yul\":5428:5451   */\n      eq\n        /* \"#utility.yul\":5408:5409   */\n      dup4\n        /* \"#utility.yul\":5401:5410   */\n      iszero\n        /* \"#utility.yul\":5381:5465   */\n      or\n        /* \"#utility.yul\":5358:5498   */\n      tag_109\n      jumpi\n        /* \"#utility.yul\":5478:5496   */\n      tag_110\n      tag_36\n      jump\t// in\n    tag_110:\n        /* \"#utility.yul\":5358:5498   */\n    tag_109:\n        /* \"#utility.yul\":4996:5505   */\n      pop\n        /* \"#utility.yul\":4949:5505   */\n      swap3\n      swap2\n      pop\n      pop\n      jump\t// out\n\n    auxdata: 0xa26469706673582212201336462084d5cde6736d77ec78fc436681c46b77b31f18c9aae6b966456cb85864736f6c63430008110033\n}\n",
				"bytecode": {
					"linkReferences": {},
					"object": "6080604052603260005534801561001557600080fd5b5061051b806100256000396000f3fe6080604052600436106100295760003560e01c8063098de8201461002e578063b60d428814610059575b600080fd5b34801561003a57600080fd5b50610043610063565b60405161005091906101ba565b60405180910390f35b610061610069565b005b60005481565b6000610074346100be565b90506000548110156100bb576040517f08c379a00000000000000000000000000000000000000000000000000000000081526004016100b290610258565b60405180910390fd5b50565b6000806100c96100f8565b90506000670de0b6b3a764000084836100e291906102a7565b6100ec9190610318565b90508092505050919050565b60008073d4a33860578de61dbabdc8bfdb98fd742fa7028e905060008173ffffffffffffffffffffffffffffffffffffffff1663feaf968c6040518163ffffffff1660e01b815260040160a060405180830381865afa15801561015f573d6000803e3d6000fd5b505050506040513d601f19601f8201168201806040525081019061018391906103f2565b5050509150506402540be4008161019a919061046d565b9250505090565b6000819050919050565b6101b4816101a1565b82525050565b60006020820190506101cf60008301846101ab565b92915050565b600082825260208201905092915050565b7f596f75206e65656420746f2073656e642061746c656173742024353020776f7260008201527f7468206f66206574686572000000000000000000000000000000000000000000602082015250565b6000610242602b836101d5565b915061024d826101e6565b604082019050919050565b6000602082019050818103600083015261027181610235565b9050919050565b7f4e487b7100000000000000000000000000000000000000000000000000000000600052601160045260246000fd5b60006102b2826101a1565b91506102bd836101a1565b92508282026102cb816101a1565b915082820484148315176102e2576102e1610278565b5b5092915050565b7f4e487b7100000000000000000000000000000000000000000000000000000000600052601260045260246000fd5b6000610323826101a1565b915061032e836101a1565b92508261033e5761033d6102e9565b5b828204905092915050565b600080fd5b600069ffffffffffffffffffff82169050919050565b61036d8161034e565b811461037857600080fd5b50565b60008151905061038a81610364565b92915050565b6000819050919050565b6103a381610390565b81146103ae57600080fd5b50565b6000815190506103c08161039a565b92915050565b6103cf816101a1565b81146103da57600080fd5b50565b6000815190506103ec816103c6565b92915050565b600080600080600060a0868803121561040e5761040d610349565b5b600061041c8882890161037b565b955050602061042d888289016103b1565b945050604061043e888289016103dd565b935050606061044f888289016103dd565b92505060806104608882890161037b565b9150509295509295909350565b600061047882610390565b915061048383610390565b925082820261049181610390565b91507f800000000000000000000000000000000000000000000000000000000000000084146000841216156104c9576104c8610278565b5b82820584148315176104de576104dd610278565b5b509291505056fea26469706673582212201336462084d5cde6736d77ec78fc436681c46b77b31f18c9aae6b966456cb85864736f6c63430008110033",
					"opcodes": "PUSH1 0x80 PUSH1 0x40 MSTORE PUSH1 0x32 PUSH1 0x0 SSTORE CALLVALUE DUP1 ISZERO PUSH2 0x15 JUMPI PUSH1 0x0 DUP1 REVERT JUMPDEST POP PUSH2 0x51B DUP1 PUSH2 0x25 PUSH1 0x0 CODECOPY PUSH1 0x0 RETURN INVALID PUSH1 0x80 PUSH1 0x40 MSTORE PUSH1 0x4 CALLDATASIZE LT PUSH2 0x29 JUMPI PUSH1 0x0 CALLDATALOAD PUSH1 0xE0 SHR DUP1 PUSH4 0x98DE820 EQ PUSH2 0x2E JUMPI DUP1 PUSH4 0xB60D4288 EQ PUSH2 0x59 JUMPI JUMPDEST PUSH1 0x0 DUP1 REVERT JUMPDEST CALLVALUE DUP1 ISZERO PUSH2 0x3A JUMPI PUSH1 0x0 DUP1 REVERT JUMPDEST POP PUSH2 0x43 PUSH2 0x63 JUMP JUMPDEST PUSH1 0x40 MLOAD PUSH2 0x50 SWAP2 SWAP1 PUSH2 0x1BA JUMP JUMPDEST PUSH1 0x40 MLOAD DUP1 SWAP2 SUB SWAP1 RETURN JUMPDEST PUSH2 0x61 PUSH2 0x69 JUMP JUMPDEST STOP JUMPDEST PUSH1 0x0 SLOAD DUP2 JUMP JUMPDEST PUSH1 0x0 PUSH2 0x74 CALLVALUE PUSH2 0xBE JUMP JUMPDEST SWAP1 POP PUSH1 0x0 SLOAD DUP2 LT ISZERO PUSH2 0xBB JUMPI PUSH1 0x40 MLOAD PUSH32 0x8C379A000000000000000000000000000000000000000000000000000000000 DUP2 MSTORE PUSH1 0x4 ADD PUSH2 0xB2 SWAP1 PUSH2 0x258 JUMP JUMPDEST PUSH1 0x40 MLOAD DUP1 SWAP2 SUB SWAP1 REVERT JUMPDEST POP JUMP JUMPDEST PUSH1 0x0 DUP1 PUSH2 0xC9 PUSH2 0xF8 JUMP JUMPDEST SWAP1 POP PUSH1 0x0 PUSH8 0xDE0B6B3A7640000 DUP5 DUP4 PUSH2 0xE2 SWAP2 SWAP1 PUSH2 0x2A7 JUMP JUMPDEST PUSH2 0xEC SWAP2 SWAP1 PUSH2 0x318 JUMP JUMPDEST SWAP1 POP DUP1 SWAP3 POP POP POP SWAP2 SWAP1 POP JUMP JUMPDEST PUSH1 0x0 DUP1 PUSH20 0xD4A33860578DE61DBABDC8BFDB98FD742FA7028E SWAP1 POP PUSH1 0x0 DUP2 PUSH20 0xFFFFFFFFFFFFFFFFFFFFFFFFFFFFFFFFFFFFFFFF AND PUSH4 0xFEAF968C PUSH1 0x40 MLOAD DUP2 PUSH4 0xFFFFFFFF AND PUSH1 0xE0 SHL DUP2 MSTORE PUSH1 0x4 ADD PUSH1 0xA0 PUSH1 0x40 MLOAD DUP1 DUP4 SUB DUP2 DUP7 GAS STATICCALL ISZERO DUP1 ISZERO PUSH2 0x15F JUMPI RETURNDATASIZE PUSH1 0x0 DUP1 RETURNDATACOPY RETURNDATASIZE PUSH1 0x0 REVERT JUMPDEST POP POP POP POP PUSH1 0x40 MLOAD RETURNDATASIZE PUSH1 0x1F NOT PUSH1 0x1F DUP3 ADD AND DUP3 ADD DUP1 PUSH1 0x40 MSTORE POP DUP2 ADD SWAP1 PUSH2 0x183 SWAP2 SWAP1 PUSH2 0x3F2 JUMP JUMPDEST POP POP POP SWAP2 POP POP PUSH5 0x2540BE400 DUP2 PUSH2 0x19A SWAP2 SWAP1 PUSH2 0x46D JUMP JUMPDEST SWAP3 POP POP POP SWAP1 JUMP JUMPDEST PUSH1 0x0 DUP2 SWAP1 POP SWAP2 SWAP1 POP JUMP JUMPDEST PUSH2 0x1B4 DUP2 PUSH2 0x1A1 JUMP JUMPDEST DUP3 MSTORE POP POP JUMP JUMPDEST PUSH1 0x0 PUSH1 0x20 DUP3 ADD SWAP1 POP PUSH2 0x1CF PUSH1 0x0 DUP4 ADD DUP5 PUSH2 0x1AB JUMP JUMPDEST SWAP3 SWAP2 POP POP JUMP JUMPDEST PUSH1 0x0 DUP3 DUP3 MSTORE PUSH1 0x20 DUP3 ADD SWAP1 POP SWAP3 SWAP2 POP POP JUMP JUMPDEST PUSH32 0x596F75206E65656420746F2073656E642061746C656173742024353020776F72 PUSH1 0x0 DUP3 ADD MSTORE PUSH32 0x7468206F66206574686572000000000000000000000000000000000000000000 PUSH1 0x20 DUP3 ADD MSTORE POP JUMP JUMPDEST PUSH1 0x0 PUSH2 0x242 PUSH1 0x2B DUP4 PUSH2 0x1D5 JUMP JUMPDEST SWAP2 POP PUSH2 0x24D DUP3 PUSH2 0x1E6 JUMP JUMPDEST PUSH1 0x40 DUP3 ADD SWAP1 POP SWAP2 SWAP1 POP JUMP JUMPDEST PUSH1 0x0 PUSH1 0x20 DUP3 ADD SWAP1 POP DUP2 DUP2 SUB PUSH1 0x0 DUP4 ADD MSTORE PUSH2 0x271 DUP2 PUSH2 0x235 JUMP JUMPDEST SWAP1 POP SWAP2 SWAP1 POP JUMP JUMPDEST PUSH32 0x4E487B7100000000000000000000000000000000000000000000000000000000 PUSH1 0x0 MSTORE PUSH1 0x11 PUSH1 0x4 MSTORE PUSH1 0x24 PUSH1 0x0 REVERT JUMPDEST PUSH1 0x0 PUSH2 0x2B2 DUP3 PUSH2 0x1A1 JUMP JUMPDEST SWAP2 POP PUSH2 0x2BD DUP4 PUSH2 0x1A1 JUMP JUMPDEST SWAP3 POP DUP3 DUP3 MUL PUSH2 0x2CB DUP2 PUSH2 0x1A1 JUMP JUMPDEST SWAP2 POP DUP3 DUP3 DIV DUP5 EQ DUP4 ISZERO OR PUSH2 0x2E2 JUMPI PUSH2 0x2E1 PUSH2 0x278 JUMP JUMPDEST JUMPDEST POP SWAP3 SWAP2 POP POP JUMP JUMPDEST PUSH32 0x4E487B7100000000000000000000000000000000000000000000000000000000 PUSH1 0x0 MSTORE PUSH1 0x12 PUSH1 0x4 MSTORE PUSH1 0x24 PUSH1 0x0 REVERT JUMPDEST PUSH1 0x0 PUSH2 0x323 DUP3 PUSH2 0x1A1 JUMP JUMPDEST SWAP2 POP PUSH2 0x32E DUP4 PUSH2 0x1A1 JUMP JUMPDEST SWAP3 POP DUP3 PUSH2 0x33E JUMPI PUSH2 0x33D PUSH2 0x2E9 JUMP JUMPDEST JUMPDEST DUP3 DUP3 DIV SWAP1 POP SWAP3 SWAP2 POP POP JUMP JUMPDEST PUSH1 0x0 DUP1 REVERT JUMPDEST PUSH1 0x0 PUSH10 0xFFFFFFFFFFFFFFFFFFFF DUP3 AND SWAP1 POP SWAP2 SWAP1 POP JUMP JUMPDEST PUSH2 0x36D DUP2 PUSH2 0x34E JUMP JUMPDEST DUP2 EQ PUSH2 0x378 JUMPI PUSH1 0x0 DUP1 REVERT JUMPDEST POP JUMP JUMPDEST PUSH1 0x0 DUP2 MLOAD SWAP1 POP PUSH2 0x38A DUP2 PUSH2 0x364 JUMP JUMPDEST SWAP3 SWAP2 POP POP JUMP JUMPDEST PUSH1 0x0 DUP2 SWAP1 POP SWAP2 SWAP1 POP JUMP JUMPDEST PUSH2 0x3A3 DUP2 PUSH2 0x390 JUMP JUMPDEST DUP2 EQ PUSH2 0x3AE JUMPI PUSH1 0x0 DUP1 REVERT JUMPDEST POP JUMP JUMPDEST PUSH1 0x0 DUP2 MLOAD SWAP1 POP PUSH2 0x3C0 DUP2 PUSH2 0x39A JUMP JUMPDEST SWAP3 SWAP2 POP POP JUMP JUMPDEST PUSH2 0x3CF DUP2 PUSH2 0x1A1 JUMP JUMPDEST DUP2 EQ PUSH2 0x3DA JUMPI PUSH1 0x0 DUP1 REVERT JUMPDEST POP JUMP JUMPDEST PUSH1 0x0 DUP2 MLOAD SWAP1 POP PUSH2 0x3EC DUP2 PUSH2 0x3C6 JUMP JUMPDEST SWAP3 SWAP2 POP POP JUMP JUMPDEST PUSH1 0x0 DUP1 PUSH1 0x0 DUP1 PUSH1 0x0 PUSH1 0xA0 DUP7 DUP9 SUB SLT ISZERO PUSH2 0x40E JUMPI PUSH2 0x40D PUSH2 0x349 JUMP JUMPDEST JUMPDEST PUSH1 0x0 PUSH2 0x41C DUP9 DUP3 DUP10 ADD PUSH2 0x37B JUMP JUMPDEST SWAP6 POP POP PUSH1 0x20 PUSH2 0x42D DUP9 DUP3 DUP10 ADD PUSH2 0x3B1 JUMP JUMPDEST SWAP5 POP POP PUSH1 0x40 PUSH2 0x43E DUP9 DUP3 DUP10 ADD PUSH2 0x3DD JUMP JUMPDEST SWAP4 POP POP PUSH1 0x60 PUSH2 0x44F DUP9 DUP3 DUP10 ADD PUSH2 0x3DD JUMP JUMPDEST SWAP3 POP POP PUSH1 0x80 PUSH2 0x460 DUP9 DUP3 DUP10 ADD PUSH2 0x37B JUMP JUMPDEST SWAP2 POP POP SWAP3 SWAP6 POP SWAP3 SWAP6 SWAP1 SWAP4 POP JUMP JUMPDEST PUSH1 0x0 PUSH2 0x478 DUP3 PUSH2 0x390 JUMP JUMPDEST SWAP2 POP PUSH2 0x483 DUP4 PUSH2 0x390 JUMP JUMPDEST SWAP3 POP DUP3 DUP3 MUL PUSH2 0x491 DUP2 PUSH2 0x390 JUMP JUMPDEST SWAP2 POP PUSH32 0x8000000000000000000000000000000000000000000000000000000000000000 DUP5 EQ PUSH1 0x0 DUP5 SLT AND ISZERO PUSH2 0x4C9 JUMPI PUSH2 0x4C8 PUSH2 0x278 JUMP JUMPDEST JUMPDEST DUP3 DUP3 SDIV DUP5 EQ DUP4 ISZERO OR PUSH2 0x4DE JUMPI PUSH2 0x4DD PUSH2 0x278 JUMP JUMPDEST JUMPDEST POP SWAP3 SWAP2 POP POP JUMP INVALID LOG2 PUSH5 0x6970667358 0x22 SLT KECCAK256 SGT CALLDATASIZE CHAINID KECCAK256 DUP5 0xD5 0xCD 0xE6 PUSH20 0x6D77EC78FC436681C46B77B31F18C9AAE6B96645 PUSH13 0xB85864736F6C63430008110033 "
				},
				"gasEstimates": {
					"creation": {
						"codeDepositCost": "261400",
						"executionCost": "22406",
						"totalCost": "283806"
					},
					"external": {
						"fund()": "infinite",
						"minimumUsd()": "2407"
					}
				},
				"methodIdentifiers": {
					"fund()": "b60d4288",
					"minimumUsd()": "098de820"
				}
			},
			"storageLayout": {
				"storage": [
					{
						"astId": 54,
						"contract": "contracts/FundMe.sol:FundMe",
						"label": "minimumUsd",
						"offset": 0,
						"slot": "0",
						"type": "t_uint256"
					}
				],
				"types": {
					"t_uint256": {
						"encoding": "inplace",
						"label": "uint256",
						"numberOfBytes": "32"
					}
				}
			},
			"userdoc": {
				"kind": "user",
				"methods": {},
				"version": 1
			}
		}
	}
}